{
  "_format": "hh-sol-artifact-1",
  "contractName": "NFTMarketplace",
  "sourceName": "contracts/NFTMarketplace.sol",
  "abi": [
    {
      "inputs": [],
      "stateMutability": "nonpayable",
      "type": "constructor"
    },
    {
      "anonymous": false,
      "inputs": [
        {
          "indexed": true,
          "internalType": "address",
          "name": "owner",
          "type": "address"
        },
        {
          "indexed": true,
          "internalType": "address",
          "name": "approved",
          "type": "address"
        },
        {
          "indexed": true,
          "internalType": "uint256",
          "name": "tokenId",
          "type": "uint256"
        }
      ],
      "name": "Approval",
      "type": "event"
    },
    {
      "anonymous": false,
      "inputs": [
        {
          "indexed": true,
          "internalType": "address",
          "name": "owner",
          "type": "address"
        },
        {
          "indexed": true,
          "internalType": "address",
          "name": "operator",
          "type": "address"
        },
        {
          "indexed": false,
          "internalType": "bool",
          "name": "approved",
          "type": "bool"
        }
      ],
      "name": "ApprovalForAll",
      "type": "event"
    },
    {
      "anonymous": false,
      "inputs": [
        {
          "indexed": false,
          "internalType": "uint256",
          "name": "_fromTokenId",
          "type": "uint256"
        },
        {
          "indexed": false,
          "internalType": "uint256",
          "name": "_toTokenId",
          "type": "uint256"
        }
      ],
      "name": "BatchMetadataUpdate",
      "type": "event"
    },
    {
      "anonymous": false,
      "inputs": [
        {
          "indexed": true,
          "internalType": "address",
          "name": "from",
          "type": "address"
        },
        {
          "indexed": false,
          "internalType": "string",
          "name": "name",
          "type": "string"
        },
        {
          "indexed": false,
          "internalType": "string",
          "name": "message",
          "type": "string"
        },
        {
          "indexed": false,
          "internalType": "uint256",
          "name": "timestamp",
          "type": "uint256"
        },
        {
          "indexed": false,
          "internalType": "uint256",
          "name": "amount",
          "type": "uint256"
        }
      ],
      "name": "Donation",
      "type": "event"
    },
    {
      "anonymous": false,
      "inputs": [
        {
          "indexed": false,
          "internalType": "uint256",
          "name": "newPrice",
          "type": "uint256"
        }
      ],
      "name": "ListingPriceUpdated",
      "type": "event"
    },
    {
      "anonymous": false,
      "inputs": [
        {
          "indexed": true,
          "internalType": "uint256",
          "name": "tokenId",
          "type": "uint256"
        },
        {
          "indexed": false,
          "internalType": "address",
          "name": "seller",
          "type": "address"
        },
        {
          "indexed": false,
          "internalType": "address",
          "name": "owner",
          "type": "address"
        },
        {
          "indexed": false,
          "internalType": "uint256",
          "name": "price",
          "type": "uint256"
        },
        {
          "indexed": false,
          "internalType": "bool",
          "name": "sold",
          "type": "bool"
        }
      ],
      "name": "MarketItemCreated",
      "type": "event"
    },
    {
      "anonymous": false,
      "inputs": [
        {
          "indexed": true,
          "internalType": "uint256",
          "name": "tokenId",
          "type": "uint256"
        },
        {
          "indexed": false,
          "internalType": "address",
          "name": "buyer",
          "type": "address"
        },
        {
          "indexed": false,
          "internalType": "address",
          "name": "seller",
          "type": "address"
        },
        {
          "indexed": false,
          "internalType": "uint256",
          "name": "price",
          "type": "uint256"
        }
      ],
      "name": "MarketSale",
      "type": "event"
    },
    {
      "anonymous": false,
      "inputs": [
        {
          "indexed": false,
          "internalType": "uint256",
          "name": "_tokenId",
          "type": "uint256"
        }
      ],
      "name": "MetadataUpdate",
      "type": "event"
    },
    {
      "anonymous": false,
      "inputs": [
        {
          "indexed": true,
          "internalType": "uint256",
          "name": "tokenId",
          "type": "uint256"
        },
        {
          "indexed": false,
          "internalType": "address",
          "name": "seller",
          "type": "address"
        },
        {
          "indexed": false,
          "internalType": "address",
          "name": "owner",
          "type": "address"
        },
        {
          "indexed": false,
          "internalType": "uint256",
          "name": "price",
          "type": "uint256"
        }
      ],
      "name": "TokenResold",
      "type": "event"
    },
    {
      "anonymous": false,
      "inputs": [
        {
          "indexed": true,
          "internalType": "address",
          "name": "from",
          "type": "address"
        },
        {
          "indexed": true,
          "internalType": "address",
          "name": "to",
          "type": "address"
        },
        {
          "indexed": true,
          "internalType": "uint256",
          "name": "tokenId",
          "type": "uint256"
        }
      ],
      "name": "Transfer",
      "type": "event"
    },
    {
      "inputs": [],
      "name": "Rowner",
      "outputs": [
        {
          "internalType": "address payable",
          "name": "",
          "type": "address"
        }
      ],
      "stateMutability": "view",
      "type": "function"
    },
    {
      "inputs": [
        {
          "internalType": "address",
          "name": "to",
          "type": "address"
        },
        {
          "internalType": "uint256",
          "name": "tokenId",
          "type": "uint256"
        }
      ],
      "name": "approve",
      "outputs": [],
      "stateMutability": "nonpayable",
      "type": "function"
    },
    {
      "inputs": [
        {
          "internalType": "address",
          "name": "owner",
          "type": "address"
        }
      ],
      "name": "balanceOf",
      "outputs": [
        {
          "internalType": "uint256",
          "name": "",
          "type": "uint256"
        }
      ],
      "stateMutability": "view",
      "type": "function"
    },
    {
      "inputs": [
        {
          "internalType": "string",
          "name": "name",
          "type": "string"
        },
        {
          "internalType": "string",
          "name": "message",
          "type": "string"
        }
      ],
      "name": "buyChai",
      "outputs": [],
      "stateMutability": "payable",
      "type": "function"
    },
    {
      "inputs": [
        {
          "internalType": "uint256",
          "name": "tokenId",
          "type": "uint256"
        },
        {
          "internalType": "uint256",
          "name": "price",
          "type": "uint256"
        }
      ],
      "name": "createMarketItem",
      "outputs": [],
      "stateMutability": "payable",
      "type": "function"
    },
    {
      "inputs": [
        {
          "internalType": "uint256",
          "name": "tokenId",
          "type": "uint256"
        }
      ],
      "name": "createMarketSale",
      "outputs": [],
      "stateMutability": "payable",
      "type": "function"
    },
    {
      "inputs": [
        {
          "internalType": "string",
          "name": "tokenURI",
          "type": "string"
        },
        {
          "internalType": "uint256",
          "name": "price",
          "type": "uint256"
        }
      ],
      "name": "createToken",
      "outputs": [
        {
          "internalType": "uint256",
          "name": "",
          "type": "uint256"
        }
      ],
      "stateMutability": "payable",
      "type": "function"
    },
    {
      "inputs": [],
      "name": "fetchItemsListed",
      "outputs": [
        {
          "components": [
            {
              "internalType": "uint256",
              "name": "tokenId",
              "type": "uint256"
            },
            {
              "internalType": "address payable",
              "name": "seller",
              "type": "address"
            },
            {
              "internalType": "address payable",
              "name": "owner",
              "type": "address"
            },
            {
              "internalType": "uint256",
              "name": "price",
              "type": "uint256"
            },
            {
              "internalType": "bool",
              "name": "sold",
              "type": "bool"
            }
          ],
          "internalType": "struct NFTMarketplace.MarketItem[]",
          "name": "",
          "type": "tuple[]"
        }
      ],
      "stateMutability": "view",
      "type": "function"
    },
    {
      "inputs": [],
      "name": "fetchMarketItems",
      "outputs": [
        {
          "components": [
            {
              "internalType": "uint256",
              "name": "tokenId",
              "type": "uint256"
            },
            {
              "internalType": "address payable",
              "name": "seller",
              "type": "address"
            },
            {
              "internalType": "address payable",
              "name": "owner",
              "type": "address"
            },
            {
              "internalType": "uint256",
              "name": "price",
              "type": "uint256"
            },
            {
              "internalType": "bool",
              "name": "sold",
              "type": "bool"
            }
          ],
          "internalType": "struct NFTMarketplace.MarketItem[]",
          "name": "",
          "type": "tuple[]"
        }
      ],
      "stateMutability": "view",
      "type": "function"
    },
    {
      "inputs": [],
      "name": "fetchMyNFTs",
      "outputs": [
        {
          "components": [
            {
              "internalType": "uint256",
              "name": "tokenId",
              "type": "uint256"
            },
            {
              "internalType": "address payable",
              "name": "seller",
              "type": "address"
            },
            {
              "internalType": "address payable",
              "name": "owner",
              "type": "address"
            },
            {
              "internalType": "uint256",
              "name": "price",
              "type": "uint256"
            },
            {
              "internalType": "bool",
              "name": "sold",
              "type": "bool"
            }
          ],
          "internalType": "struct NFTMarketplace.MarketItem[]",
          "name": "",
          "type": "tuple[]"
        }
      ],
      "stateMutability": "view",
      "type": "function"
    },
    {
      "inputs": [
        {
          "internalType": "uint256",
          "name": "tokenId",
          "type": "uint256"
        }
      ],
      "name": "getApproved",
      "outputs": [
        {
          "internalType": "address",
          "name": "",
          "type": "address"
        }
      ],
      "stateMutability": "view",
      "type": "function"
    },
    {
      "inputs": [],
      "name": "getBalance",
      "outputs": [
        {
          "internalType": "uint256",
          "name": "",
          "type": "uint256"
        }
      ],
      "stateMutability": "view",
      "type": "function"
    },
    {
      "inputs": [],
      "name": "getListingPrice",
      "outputs": [
        {
          "internalType": "uint256",
          "name": "",
          "type": "uint256"
        }
      ],
      "stateMutability": "view",
      "type": "function"
    },
    {
      "inputs": [],
      "name": "getMemos",
      "outputs": [
        {
          "components": [
            {
              "internalType": "string",
              "name": "name",
              "type": "string"
            },
            {
              "internalType": "string",
              "name": "message",
              "type": "string"
            },
            {
              "internalType": "uint256",
              "name": "timestamp",
              "type": "uint256"
            },
            {
              "internalType": "address",
              "name": "from",
              "type": "address"
            }
          ],
          "internalType": "struct NFTMarketplace.Memo[]",
          "name": "",
          "type": "tuple[]"
        }
      ],
      "stateMutability": "view",
      "type": "function"
    },
    {
      "inputs": [
        {
          "internalType": "address",
          "name": "owner",
          "type": "address"
        },
        {
          "internalType": "address",
          "name": "operator",
          "type": "address"
        }
      ],
      "name": "isApprovedForAll",
      "outputs": [
        {
          "internalType": "bool",
          "name": "",
          "type": "bool"
        }
      ],
      "stateMutability": "view",
      "type": "function"
    },
    {
      "inputs": [],
      "name": "name",
      "outputs": [
        {
          "internalType": "string",
          "name": "",
          "type": "string"
        }
      ],
      "stateMutability": "view",
      "type": "function"
    },
    {
      "inputs": [
        {
          "internalType": "uint256",
          "name": "tokenId",
          "type": "uint256"
        }
      ],
      "name": "ownerOf",
      "outputs": [
        {
          "internalType": "address",
          "name": "",
          "type": "address"
        }
      ],
      "stateMutability": "view",
      "type": "function"
    },
    {
      "inputs": [
        {
          "internalType": "uint256",
          "name": "tokenId",
          "type": "uint256"
        },
        {
          "internalType": "uint256",
          "name": "price",
          "type": "uint256"
        }
      ],
      "name": "resellToken",
      "outputs": [],
      "stateMutability": "payable",
      "type": "function"
    },
    {
      "inputs": [
        {
          "internalType": "address",
          "name": "from",
          "type": "address"
        },
        {
          "internalType": "address",
          "name": "to",
          "type": "address"
        },
        {
          "internalType": "uint256",
          "name": "tokenId",
          "type": "uint256"
        }
      ],
      "name": "safeTransferFrom",
      "outputs": [],
      "stateMutability": "nonpayable",
      "type": "function"
    },
    {
      "inputs": [
        {
          "internalType": "address",
          "name": "from",
          "type": "address"
        },
        {
          "internalType": "address",
          "name": "to",
          "type": "address"
        },
        {
          "internalType": "uint256",
          "name": "tokenId",
          "type": "uint256"
        },
        {
          "internalType": "bytes",
          "name": "data",
          "type": "bytes"
        }
      ],
      "name": "safeTransferFrom",
      "outputs": [],
      "stateMutability": "nonpayable",
      "type": "function"
    },
    {
      "inputs": [
        {
          "internalType": "address",
          "name": "operator",
          "type": "address"
        },
        {
          "internalType": "bool",
          "name": "approved",
          "type": "bool"
        }
      ],
      "name": "setApprovalForAll",
      "outputs": [],
      "stateMutability": "nonpayable",
      "type": "function"
    },
    {
      "inputs": [
        {
          "internalType": "bytes4",
          "name": "interfaceId",
          "type": "bytes4"
        }
      ],
      "name": "supportsInterface",
      "outputs": [
        {
          "internalType": "bool",
          "name": "",
          "type": "bool"
        }
      ],
      "stateMutability": "view",
      "type": "function"
    },
    {
      "inputs": [],
      "name": "symbol",
      "outputs": [
        {
          "internalType": "string",
          "name": "",
          "type": "string"
        }
      ],
      "stateMutability": "view",
      "type": "function"
    },
    {
      "inputs": [
        {
          "internalType": "uint256",
          "name": "tokenId",
          "type": "uint256"
        }
      ],
      "name": "tokenURI",
      "outputs": [
        {
          "internalType": "string",
          "name": "",
          "type": "string"
        }
      ],
      "stateMutability": "view",
      "type": "function"
    },
    {
      "inputs": [
        {
          "internalType": "address",
          "name": "from",
          "type": "address"
        },
        {
          "internalType": "address",
          "name": "to",
          "type": "address"
        },
        {
          "internalType": "uint256",
          "name": "tokenId",
          "type": "uint256"
        }
      ],
      "name": "transferFrom",
      "outputs": [],
      "stateMutability": "nonpayable",
      "type": "function"
    },
    {
      "inputs": [
        {
          "internalType": "uint256",
          "name": "_listingPrice",
          "type": "uint256"
        }
      ],
      "name": "updateListingPrice",
      "outputs": [],
      "stateMutability": "payable",
      "type": "function"
    }
  ],
  "bytecode": "0x60806040526658d15e17628000600a553480156200001c57600080fd5b506040518060400160405280601081526020017f4d657461766572736520546f6b656e73000000000000000000000000000000008152506040518060400160405280600481526020017f4d455454000000000000000000000000000000000000000000000000000000008152508160009080519060200190620000a192919062000145565b508060019080519060200190620000ba92919062000145565b50505033600e60006101000a81548173ffffffffffffffffffffffffffffffffffffffff021916908373ffffffffffffffffffffffffffffffffffffffff16021790555033600b60006101000a81548173ffffffffffffffffffffffffffffffffffffffff021916908373ffffffffffffffffffffffffffffffffffffffff1602179055506200025a565b828054620001539062000224565b90600052602060002090601f016020900481019282620001775760008555620001c3565b82601f106200019257805160ff1916838001178555620001c3565b82800160010185558215620001c3579182015b82811115620001c2578251825591602001919060010190620001a5565b5b509050620001d29190620001d6565b5090565b5b80821115620001f1576000816000905550600101620001d7565b5090565b7f4e487b7100000000000000000000000000000000000000000000000000000000600052602260045260246000fd5b600060028204905060018216806200023d57607f821691505b60208210811415620002545762000253620001f5565b5b50919050565b614aa4806200026a6000396000f3fe6080604052600436106101815760003560e01c80636a13d859116100d1578063a22cb4651161008a578063be9af53611610064578063be9af5361461054e578063c87b56dd1461056a578063e219fc75146105a7578063e985e9c5146105c357610181565b8063a22cb465146104e0578063ae677aa314610509578063b88d4fde1461052557610181565b80636a13d859146103d657806370a08231146103f257806372b3b6201461042f578063865c51721461045f57806395d89b411461048a578063a0d18045146104b557610181565b806312e855851161013e578063361c199511610118578063361c19951461032957806342842e0e1461034557806345f8fa801461036e5780636352211e1461039957610181565b806312e85585146102aa578063202e3740146102d557806323b872dd1461030057610181565b806301ffc9a71461018657806306fdde03146101c3578063081812fc146101ee578063095ea7b31461022b5780630f08efe01461025457806312065fe01461027f575b600080fd5b34801561019257600080fd5b506101ad60048036038101906101a89190613254565b610600565b6040516101ba919061329c565b60405180910390f35b3480156101cf57600080fd5b506101d8610661565b6040516101e59190613350565b60405180910390f35b3480156101fa57600080fd5b50610215600480360381019061021091906133a8565b6106f3565b6040516102229190613416565b60405180910390f35b34801561023757600080fd5b50610252600480360381019061024d919061345d565b610739565b005b34801561026057600080fd5b50610269610851565b60405161027691906135f3565b60405180910390f35b34801561028b57600080fd5b50610294610aba565b6040516102a19190613624565b60405180910390f35b3480156102b657600080fd5b506102bf610afb565b6040516102cc9190613624565b60405180910390f35b3480156102e157600080fd5b506102ea610b05565b6040516102f791906135f3565b60405180910390f35b34801561030c57600080fd5b506103276004803603810190610322919061363f565b610df3565b005b610343600480360381019061033e9190613692565b610e53565b005b34801561035157600080fd5b5061036c6004803603810190610367919061363f565b611056565b005b34801561037a57600080fd5b50610383611076565b60405161039091906135f3565b60405180910390f35b3480156103a557600080fd5b506103c060048036038101906103bb91906133a8565b611364565b6040516103cd9190613416565b60405180910390f35b6103f060048036038101906103eb9190613807565b6113eb565b005b3480156103fe57600080fd5b506104196004803603810190610414919061387f565b6115de565b6040516104269190613624565b60405180910390f35b610449600480360381019061044491906138ac565b611696565b6040516104569190613624565b60405180910390f35b34801561046b57600080fd5b506104746116d8565b6040516104819190613a8d565b60405180910390f35b34801561049657600080fd5b5061049f6118bb565b6040516104ac9190613350565b60405180910390f35b3480156104c157600080fd5b506104ca61194d565b6040516104d79190613abe565b60405180910390f35b3480156104ec57600080fd5b5061050760048036038101906105029190613b05565b611973565b005b610523600480360381019061051e91906133a8565b611989565b005b34801561053157600080fd5b5061054c60048036038101906105479190613be6565b611a5c565b005b610568600480360381019061056391906133a8565b611abe565b005b34801561057657600080fd5b50610591600480360381019061058c91906133a8565b611d38565b60405161059e9190613350565b60405180910390f35b6105c160048036038101906105bc9190613692565b611e4b565b005b3480156105cf57600080fd5b506105ea60048036038101906105e59190613c69565b61207c565b6040516105f7919061329c565b60405180910390f35b6000634906490660e01b7bffffffffffffffffffffffffffffffffffffffffffffffffffffffff1916827bffffffffffffffffffffffffffffffffffffffffffffffffffffffff1916148061065a575061065982612110565b5b9050919050565b60606000805461067090613cd8565b80601f016020809104026020016040519081016040528092919081815260200182805461069c90613cd8565b80156106e95780601f106106be576101008083540402835291602001916106e9565b820191906000526020600020905b8154815290600101906020018083116106cc57829003601f168201915b5050505050905090565b60006106fe826121f2565b6004600083815260200190815260200160002060009054906101000a900473ffffffffffffffffffffffffffffffffffffffff169050919050565b600061074482611364565b90508073ffffffffffffffffffffffffffffffffffffffff168373ffffffffffffffffffffffffffffffffffffffff1614156107b5576040517f08c379a00000000000000000000000000000000000000000000000000000000081526004016107ac90613d7c565b60405180910390fd5b8073ffffffffffffffffffffffffffffffffffffffff166107d461223d565b73ffffffffffffffffffffffffffffffffffffffff1614806108035750610802816107fd61223d565b61207c565b5b610842576040517f08c379a000000000000000000000000000000000000000000000000000000000815260040161083990613e0e565b60405180910390fd5b61084c8383612245565b505050565b6060600061085f60076122fe565b9050600061086d60086122fe565b61087760076122fe565b6108819190613e5d565b90506000808267ffffffffffffffff8111156108a05761089f6136dc565b5b6040519080825280602002602001820160405280156108d957816020015b6108c66130e8565b8152602001906001900390816108be5790505b50905060005b84811015610aaf573073ffffffffffffffffffffffffffffffffffffffff16600c600060018461090f9190613e91565b815260200190815260200160002060020160009054906101000a900473ffffffffffffffffffffffffffffffffffffffff1673ffffffffffffffffffffffffffffffffffffffff161415610a9c57600060018261096c9190613e91565b90506000600c60008381526020019081526020016000209050806040518060a0016040529081600082015481526020016001820160009054906101000a900473ffffffffffffffffffffffffffffffffffffffff1673ffffffffffffffffffffffffffffffffffffffff1673ffffffffffffffffffffffffffffffffffffffff1681526020016002820160009054906101000a900473ffffffffffffffffffffffffffffffffffffffff1673ffffffffffffffffffffffffffffffffffffffff1673ffffffffffffffffffffffffffffffffffffffff168152602001600382015481526020016004820160009054906101000a900460ff161515151581525050848681518110610a7f57610a7e613ee7565b5b6020026020010181905250600185610a979190613e91565b945050505b8080610aa790613f16565b9150506108df565b508094505050505090565b6000600e60009054906101000a900473ffffffffffffffffffffffffffffffffffffffff1673ffffffffffffffffffffffffffffffffffffffff1631905090565b6000600a54905090565b60606000610b1360076122fe565b905060008060005b83811015610bbc573373ffffffffffffffffffffffffffffffffffffffff16600c6000600184610b4b9190613e91565b815260200190815260200160002060020160009054906101000a900473ffffffffffffffffffffffffffffffffffffffff1673ffffffffffffffffffffffffffffffffffffffff161415610ba957600183610ba69190613e91565b92505b8080610bb490613f16565b915050610b1b565b5060008267ffffffffffffffff811115610bd957610bd86136dc565b5b604051908082528060200260200182016040528015610c1257816020015b610bff6130e8565b815260200190600190039081610bf75790505b50905060005b84811015610de8573373ffffffffffffffffffffffffffffffffffffffff16600c6000600184610c489190613e91565b815260200190815260200160002060020160009054906101000a900473ffffffffffffffffffffffffffffffffffffffff1673ffffffffffffffffffffffffffffffffffffffff161415610dd5576000600182610ca59190613e91565b90506000600c60008381526020019081526020016000209050806040518060a0016040529081600082015481526020016001820160009054906101000a900473ffffffffffffffffffffffffffffffffffffffff1673ffffffffffffffffffffffffffffffffffffffff1673ffffffffffffffffffffffffffffffffffffffff1681526020016002820160009054906101000a900473ffffffffffffffffffffffffffffffffffffffff1673ffffffffffffffffffffffffffffffffffffffff1673ffffffffffffffffffffffffffffffffffffffff168152602001600382015481526020016004820160009054906101000a900460ff161515151581525050848681518110610db857610db7613ee7565b5b6020026020010181905250600185610dd09190613e91565b945050505b8080610de090613f16565b915050610c18565b508094505050505090565b610e04610dfe61223d565b8261230c565b610e43576040517f08c379a0000000000000000000000000000000000000000000000000000000008152600401610e3a90613fd1565b60405180910390fd5b610e4e8383836123a1565b505050565b60008111610e96576040517f08c379a0000000000000000000000000000000000000000000000000000000008152600401610e8d9061403d565b60405180910390fd5b600a543414610eda576040517f08c379a0000000000000000000000000000000000000000000000000000000008152600401610ed1906140cf565b60405180910390fd5b6040518060a001604052808381526020013373ffffffffffffffffffffffffffffffffffffffff1681526020013073ffffffffffffffffffffffffffffffffffffffff16815260200182815260200160001515815250600c60008481526020019081526020016000206000820151816000015560208201518160010160006101000a81548173ffffffffffffffffffffffffffffffffffffffff021916908373ffffffffffffffffffffffffffffffffffffffff16021790555060408201518160020160006101000a81548173ffffffffffffffffffffffffffffffffffffffff021916908373ffffffffffffffffffffffffffffffffffffffff1602179055506060820151816003015560808201518160040160006101000a81548160ff0219169083151502179055509050506110133330846123a1565b817fb640004f1d14576d0c209e240cad0410e0d8c0c33a09375861fbadae2588a98d333084600060405161104a94939291906140ef565b60405180910390a25050565b61107183838360405180602001604052806000815250611a5c565b505050565b6060600061108460076122fe565b905060008060005b8381101561112d573373ffffffffffffffffffffffffffffffffffffffff16600c60006001846110bc9190613e91565b815260200190815260200160002060010160009054906101000a900473ffffffffffffffffffffffffffffffffffffffff1673ffffffffffffffffffffffffffffffffffffffff16141561111a576001836111179190613e91565b92505b808061112590613f16565b91505061108c565b5060008267ffffffffffffffff81111561114a576111496136dc565b5b60405190808252806020026020018201604052801561118357816020015b6111706130e8565b8152602001906001900390816111685790505b50905060005b84811015611359573373ffffffffffffffffffffffffffffffffffffffff16600c60006001846111b99190613e91565b815260200190815260200160002060010160009054906101000a900473ffffffffffffffffffffffffffffffffffffffff1673ffffffffffffffffffffffffffffffffffffffff1614156113465760006001826112169190613e91565b90506000600c60008381526020019081526020016000209050806040518060a0016040529081600082015481526020016001820160009054906101000a900473ffffffffffffffffffffffffffffffffffffffff1673ffffffffffffffffffffffffffffffffffffffff1673ffffffffffffffffffffffffffffffffffffffff1681526020016002820160009054906101000a900473ffffffffffffffffffffffffffffffffffffffff1673ffffffffffffffffffffffffffffffffffffffff1673ffffffffffffffffffffffffffffffffffffffff168152602001600382015481526020016004820160009054906101000a900460ff16151515158152505084868151811061132957611328613ee7565b5b60200260200101819052506001856113419190613e91565b945050505b808061135190613f16565b915050611189565b508094505050505090565b6000806113708361269b565b9050600073ffffffffffffffffffffffffffffffffffffffff168173ffffffffffffffffffffffffffffffffffffffff1614156113e2576040517f08c379a00000000000000000000000000000000000000000000000000000000081526004016113d990614180565b60405180910390fd5b80915050919050565b6000341161142e576040517f08c379a000000000000000000000000000000000000000000000000000000000815260040161142590614212565b60405180910390fd5b600e60009054906101000a900473ffffffffffffffffffffffffffffffffffffffff1673ffffffffffffffffffffffffffffffffffffffff166108fc349081150290604051600060405180830381858888f19350505050158015611496573d6000803e3d6000fd5b50600d60405180608001604052808481526020018381526020014281526020013373ffffffffffffffffffffffffffffffffffffffff1681525090806001815401808255809150506001900390600052602060002090600402016000909190919091506000820151816000019080519060200190611515929190613145565b506020820151816001019080519060200190611532929190613145565b506040820151816002015560608201518160030160006101000a81548173ffffffffffffffffffffffffffffffffffffffff021916908373ffffffffffffffffffffffffffffffffffffffff16021790555050503373ffffffffffffffffffffffffffffffffffffffff167fdd10e0ac7ff4472e4e130e66c1b79a146ea2f69e23abeb3c96097d9066eaa204838342346040516115d29493929190614232565b60405180910390a25050565b60008073ffffffffffffffffffffffffffffffffffffffff168273ffffffffffffffffffffffffffffffffffffffff16141561164f576040517f08c379a0000000000000000000000000000000000000000000000000000000008152600401611646906142f7565b60405180910390fd5b600360008373ffffffffffffffffffffffffffffffffffffffff1673ffffffffffffffffffffffffffffffffffffffff168152602001908152602001600020549050919050565b60006116a260076126d8565b60006116ae60076122fe565b90506116ba33826126ee565b6116c4818561290c565b6116ce8184610e53565b8091505092915050565b6060600d805480602002602001604051908101604052809291908181526020016000905b828210156118b2578382906000526020600020906004020160405180608001604052908160008201805461172f90613cd8565b80601f016020809104026020016040519081016040528092919081815260200182805461175b90613cd8565b80156117a85780601f1061177d576101008083540402835291602001916117a8565b820191906000526020600020905b81548152906001019060200180831161178b57829003601f168201915b505050505081526020016001820180546117c190613cd8565b80601f01602080910402602001604051908101604052809291908181526020018280546117ed90613cd8565b801561183a5780601f1061180f5761010080835404028352916020019161183a565b820191906000526020600020905b81548152906001019060200180831161181d57829003601f168201915b50505050508152602001600282015481526020016003820160009054906101000a900473ffffffffffffffffffffffffffffffffffffffff1673ffffffffffffffffffffffffffffffffffffffff1673ffffffffffffffffffffffffffffffffffffffff1681525050815260200190600101906116fc565b50505050905090565b6060600180546118ca90613cd8565b80601f01602080910402602001604051908101604052809291908181526020018280546118f690613cd8565b80156119435780601f1061191857610100808354040283529160200191611943565b820191906000526020600020905b81548152906001019060200180831161192657829003601f168201915b5050505050905090565b600e60009054906101000a900473ffffffffffffffffffffffffffffffffffffffff1681565b61198561197e61223d565b83836129b7565b5050565b3373ffffffffffffffffffffffffffffffffffffffff16600b60009054906101000a900473ffffffffffffffffffffffffffffffffffffffff1673ffffffffffffffffffffffffffffffffffffffff1614611a19576040517f08c379a0000000000000000000000000000000000000000000000000000000008152600401611a1090614389565b60405180910390fd5b80600a819055507f661c8d2e494b21e778d6b19ffb42ca00ee63062be7f9eb28af0850e01a9cf214600a54604051611a519190613624565b60405180910390a150565b611a6d611a6761223d565b8361230c565b611aac576040517f08c379a0000000000000000000000000000000000000000000000000000000008152600401611aa390613fd1565b60405180910390fd5b611ab884848484612b24565b50505050565b6000600c60008381526020019081526020016000206003015490506000600c600084815260200190815260200160002060010160009054906101000a900473ffffffffffffffffffffffffffffffffffffffff169050813414611b56576040517f08c379a0000000000000000000000000000000000000000000000000000000008152600401611b4d9061441b565b60405180910390fd5b33600c600085815260200190815260200160002060020160006101000a81548173ffffffffffffffffffffffffffffffffffffffff021916908373ffffffffffffffffffffffffffffffffffffffff1602179055506001600c600085815260200190815260200160002060040160006101000a81548160ff0219169083151502179055506000600c600085815260200190815260200160002060010160006101000a81548173ffffffffffffffffffffffffffffffffffffffff021916908373ffffffffffffffffffffffffffffffffffffffff160217905550611c3a60086126d8565b611c453033856123a1565b600b60009054906101000a900473ffffffffffffffffffffffffffffffffffffffff1673ffffffffffffffffffffffffffffffffffffffff166108fc600a549081150290604051600060405180830381858888f19350505050158015611caf573d6000803e3d6000fd5b508073ffffffffffffffffffffffffffffffffffffffff166108fc349081150290604051600060405180830381858888f19350505050158015611cf6573d6000803e3d6000fd5b50827f92702ca16506c19534081722898e3d74348202feb9cec071d74fc908c67dd03e338385604051611d2b9392919061443b565b60405180910390a2505050565b6060611d43826121f2565b6000600660008481526020019081526020016000208054611d6390613cd8565b80601f0160208091040260200160405190810160405280929190818152602001828054611d8f90613cd8565b8015611ddc5780601f10611db157610100808354040283529160200191611ddc565b820191906000526020600020905b815481529060010190602001808311611dbf57829003601f168201915b505050505090506000611ded612b80565b9050600081511415611e03578192505050611e46565b600082511115611e38578082604051602001611e209291906144ae565b60405160208183030381529060405292505050611e46565b611e4184612b97565b925050505b919050565b3373ffffffffffffffffffffffffffffffffffffffff16600c600084815260200190815260200160002060020160009054906101000a900473ffffffffffffffffffffffffffffffffffffffff1673ffffffffffffffffffffffffffffffffffffffff1614611eef576040517f08c379a0000000000000000000000000000000000000000000000000000000008152600401611ee690614544565b60405180910390fd5b600a543414611f33576040517f08c379a0000000000000000000000000000000000000000000000000000000008152600401611f2a906140cf565b60405180910390fd5b6000600c600084815260200190815260200160002060040160006101000a81548160ff02191690831515021790555080600c60008481526020019081526020016000206003018190555033600c600084815260200190815260200160002060010160006101000a81548173ffffffffffffffffffffffffffffffffffffffff021916908373ffffffffffffffffffffffffffffffffffffffff16021790555030600c600084815260200190815260200160002060020160006101000a81548173ffffffffffffffffffffffffffffffffffffffff021916908373ffffffffffffffffffffffffffffffffffffffff1602179055506120316008612bff565b61203c3330846123a1565b817fc6b0d13d6c1af02bfe5761531c93b25f6078fbae63c013f2afb85a0a42ffc1f33330846040516120709392919061443b565b60405180910390a25050565b6000600560008473ffffffffffffffffffffffffffffffffffffffff1673ffffffffffffffffffffffffffffffffffffffff16815260200190815260200160002060008373ffffffffffffffffffffffffffffffffffffffff1673ffffffffffffffffffffffffffffffffffffffff16815260200190815260200160002060009054906101000a900460ff16905092915050565b60007f80ac58cd000000000000000000000000000000000000000000000000000000007bffffffffffffffffffffffffffffffffffffffffffffffffffffffff1916827bffffffffffffffffffffffffffffffffffffffffffffffffffffffff191614806121db57507f5b5e139f000000000000000000000000000000000000000000000000000000007bffffffffffffffffffffffffffffffffffffffffffffffffffffffff1916827bffffffffffffffffffffffffffffffffffffffffffffffffffffffff1916145b806121eb57506121ea82612c5b565b5b9050919050565b6121fb81612cc5565b61223a576040517f08c379a000000000000000000000000000000000000000000000000000000000815260040161223190614180565b60405180910390fd5b50565b600033905090565b816004600083815260200190815260200160002060006101000a81548173ffffffffffffffffffffffffffffffffffffffff021916908373ffffffffffffffffffffffffffffffffffffffff160217905550808273ffffffffffffffffffffffffffffffffffffffff166122b883611364565b73ffffffffffffffffffffffffffffffffffffffff167f8c5be1e5ebec7d5bd14f71427d1e84f3dd0314c0f7b2291e5b200ac8c7c3b92560405160405180910390a45050565b600081600001549050919050565b60008061231883611364565b90508073ffffffffffffffffffffffffffffffffffffffff168473ffffffffffffffffffffffffffffffffffffffff16148061235a5750612359818561207c565b5b8061239857508373ffffffffffffffffffffffffffffffffffffffff16612380846106f3565b73ffffffffffffffffffffffffffffffffffffffff16145b91505092915050565b8273ffffffffffffffffffffffffffffffffffffffff166123c182611364565b73ffffffffffffffffffffffffffffffffffffffff1614612417576040517f08c379a000000000000000000000000000000000000000000000000000000000815260040161240e906145d6565b60405180910390fd5b600073ffffffffffffffffffffffffffffffffffffffff168273ffffffffffffffffffffffffffffffffffffffff161415612487576040517f08c379a000000000000000000000000000000000000000000000000000000000815260040161247e90614668565b60405180910390fd5b6124948383836001612d06565b8273ffffffffffffffffffffffffffffffffffffffff166124b482611364565b73ffffffffffffffffffffffffffffffffffffffff161461250a576040517f08c379a0000000000000000000000000000000000000000000000000000000008152600401612501906145d6565b60405180910390fd5b6004600082815260200190815260200160002060006101000a81549073ffffffffffffffffffffffffffffffffffffffff02191690556001600360008573ffffffffffffffffffffffffffffffffffffffff1673ffffffffffffffffffffffffffffffffffffffff168152602001908152602001600020600082825403925050819055506001600360008473ffffffffffffffffffffffffffffffffffffffff1673ffffffffffffffffffffffffffffffffffffffff16815260200190815260200160002060008282540192505081905550816002600083815260200190815260200160002060006101000a81548173ffffffffffffffffffffffffffffffffffffffff021916908373ffffffffffffffffffffffffffffffffffffffff160217905550808273ffffffffffffffffffffffffffffffffffffffff168473ffffffffffffffffffffffffffffffffffffffff167fddf252ad1be2c89b69c2b068fc378daa952ba7f163c4a11628f55a4df523b3ef60405160405180910390a46126968383836001612d0c565b505050565b60006002600083815260200190815260200160002060009054906101000a900473ffffffffffffffffffffffffffffffffffffffff169050919050565b6001816000016000828254019250508190555050565b600073ffffffffffffffffffffffffffffffffffffffff168273ffffffffffffffffffffffffffffffffffffffff16141561275e576040517f08c379a0000000000000000000000000000000000000000000000000000000008152600401612755906146d4565b60405180910390fd5b61276781612cc5565b156127a7576040517f08c379a000000000000000000000000000000000000000000000000000000000815260040161279e90614740565b60405180910390fd5b6127b5600083836001612d06565b6127be81612cc5565b156127fe576040517f08c379a00000000000000000000000000000000000000000000000000000000081526004016127f590614740565b60405180910390fd5b6001600360008473ffffffffffffffffffffffffffffffffffffffff1673ffffffffffffffffffffffffffffffffffffffff16815260200190815260200160002060008282540192505081905550816002600083815260200190815260200160002060006101000a81548173ffffffffffffffffffffffffffffffffffffffff021916908373ffffffffffffffffffffffffffffffffffffffff160217905550808273ffffffffffffffffffffffffffffffffffffffff16600073ffffffffffffffffffffffffffffffffffffffff167fddf252ad1be2c89b69c2b068fc378daa952ba7f163c4a11628f55a4df523b3ef60405160405180910390a4612908600083836001612d0c565b5050565b61291582612cc5565b612954576040517f08c379a000000000000000000000000000000000000000000000000000000000815260040161294b906147d2565b60405180910390fd5b8060066000848152602001908152602001600020908051906020019061297b929190613145565b507ff8e1a15aba9398e019f0b49df1a4fde98ee17ae345cb5f6b5e2c27f5033e8ce7826040516129ab9190613624565b60405180910390a15050565b8173ffffffffffffffffffffffffffffffffffffffff168373ffffffffffffffffffffffffffffffffffffffff161415612a26576040517f08c379a0000000000000000000000000000000000000000000000000000000008152600401612a1d9061483e565b60405180910390fd5b80600560008573ffffffffffffffffffffffffffffffffffffffff1673ffffffffffffffffffffffffffffffffffffffff16815260200190815260200160002060008473ffffffffffffffffffffffffffffffffffffffff1673ffffffffffffffffffffffffffffffffffffffff16815260200190815260200160002060006101000a81548160ff0219169083151502179055508173ffffffffffffffffffffffffffffffffffffffff168373ffffffffffffffffffffffffffffffffffffffff167f17307eab39ab6107e8899845ad3d59bd9653f200f220920489ca2b5937696c3183604051612b17919061329c565b60405180910390a3505050565b612b2f8484846123a1565b612b3b84848484612d12565b612b7a576040517f08c379a0000000000000000000000000000000000000000000000000000000008152600401612b71906148d0565b60405180910390fd5b50505050565b606060405180602001604052806000815250905090565b6060612ba2826121f2565b6000612bac612b80565b90506000815111612bcc5760405180602001604052806000815250612bf7565b80612bd684612e9a565b604051602001612be79291906144ae565b6040516020818303038152906040525b915050919050565b60008160000154905060008111612c4b576040517f08c379a0000000000000000000000000000000000000000000000000000000008152600401612c429061493c565b60405180910390fd5b6001810382600001819055505050565b60007f01ffc9a7000000000000000000000000000000000000000000000000000000007bffffffffffffffffffffffffffffffffffffffffffffffffffffffff1916827bffffffffffffffffffffffffffffffffffffffffffffffffffffffff1916149050919050565b60008073ffffffffffffffffffffffffffffffffffffffff16612ce78361269b565b73ffffffffffffffffffffffffffffffffffffffff1614159050919050565b50505050565b50505050565b6000612d338473ffffffffffffffffffffffffffffffffffffffff16612f72565b15612e8d578373ffffffffffffffffffffffffffffffffffffffff1663150b7a02612d5c61223d565b8786866040518563ffffffff1660e01b8152600401612d7e94939291906149b1565b6020604051808303816000875af1925050508015612dba57506040513d601f19601f82011682018060405250810190612db79190614a12565b60015b612e3d573d8060008114612dea576040519150601f19603f3d011682016040523d82523d6000602084013e612def565b606091505b50600081511415612e35576040517f08c379a0000000000000000000000000000000000000000000000000000000008152600401612e2c906148d0565b60405180910390fd5b805181602001fd5b63150b7a0260e01b7bffffffffffffffffffffffffffffffffffffffffffffffffffffffff1916817bffffffffffffffffffffffffffffffffffffffffffffffffffffffff191614915050612e92565b600190505b949350505050565b606060006001612ea984612f95565b01905060008167ffffffffffffffff811115612ec857612ec76136dc565b5b6040519080825280601f01601f191660200182016040528015612efa5781602001600182028036833780820191505090505b509050600082602001820190505b600115612f67578080600190039150507f3031323334353637383961626364656600000000000000000000000000000000600a86061a8153600a8581612f5157612f50614a3f565b5b0494506000851415612f6257612f67565b612f08565b819350505050919050565b6000808273ffffffffffffffffffffffffffffffffffffffff163b119050919050565b600080600090507a184f03e93ff9f4daa797ed6e38ed64bf6a1f0100000000000000008310612ff3577a184f03e93ff9f4daa797ed6e38ed64bf6a1f0100000000000000008381612fe957612fe8614a3f565b5b0492506040810190505b6d04ee2d6d415b85acef81000000008310613030576d04ee2d6d415b85acef8100000000838161302657613025614a3f565b5b0492506020810190505b662386f26fc10000831061305f57662386f26fc10000838161305557613054614a3f565b5b0492506010810190505b6305f5e1008310613088576305f5e100838161307e5761307d614a3f565b5b0492506008810190505b61271083106130ad5761271083816130a3576130a2614a3f565b5b0492506004810190505b606483106130d057606483816130c6576130c5614a3f565b5b0492506002810190505b600a83106130df576001810190505b80915050919050565b6040518060a0016040528060008152602001600073ffffffffffffffffffffffffffffffffffffffff168152602001600073ffffffffffffffffffffffffffffffffffffffff168152602001600081526020016000151581525090565b82805461315190613cd8565b90600052602060002090601f01602090048101928261317357600085556131ba565b82601f1061318c57805160ff19168380011785556131ba565b828001600101855582156131ba579182015b828111156131b957825182559160200191906001019061319e565b5b5090506131c791906131cb565b5090565b5b808211156131e45760008160009055506001016131cc565b5090565b6000604051905090565b600080fd5b600080fd5b60007fffffffff0000000000000000000000000000000000000000000000000000000082169050919050565b613231816131fc565b811461323c57600080fd5b50565b60008135905061324e81613228565b92915050565b60006020828403121561326a576132696131f2565b5b60006132788482850161323f565b91505092915050565b60008115159050919050565b61329681613281565b82525050565b60006020820190506132b1600083018461328d565b92915050565b600081519050919050565b600082825260208201905092915050565b60005b838110156132f15780820151818401526020810190506132d6565b83811115613300576000848401525b50505050565b6000601f19601f8301169050919050565b6000613322826132b7565b61332c81856132c2565b935061333c8185602086016132d3565b61334581613306565b840191505092915050565b6000602082019050818103600083015261336a8184613317565b905092915050565b6000819050919050565b61338581613372565b811461339057600080fd5b50565b6000813590506133a28161337c565b92915050565b6000602082840312156133be576133bd6131f2565b5b60006133cc84828501613393565b91505092915050565b600073ffffffffffffffffffffffffffffffffffffffff82169050919050565b6000613400826133d5565b9050919050565b613410816133f5565b82525050565b600060208201905061342b6000830184613407565b92915050565b61343a816133f5565b811461344557600080fd5b50565b60008135905061345781613431565b92915050565b60008060408385031215613474576134736131f2565b5b600061348285828601613448565b925050602061349385828601613393565b9150509250929050565b600081519050919050565b600082825260208201905092915050565b6000819050602082019050919050565b6134d281613372565b82525050565b60006134e3826133d5565b9050919050565b6134f3816134d8565b82525050565b61350281613281565b82525050565b60a08201600082015161351e60008501826134c9565b50602082015161353160208501826134ea565b50604082015161354460408501826134ea565b50606082015161355760608501826134c9565b50608082015161356a60808501826134f9565b50505050565b600061357c8383613508565b60a08301905092915050565b6000602082019050919050565b60006135a08261349d565b6135aa81856134a8565b93506135b5836134b9565b8060005b838110156135e65781516135cd8882613570565b97506135d883613588565b9250506001810190506135b9565b5085935050505092915050565b6000602082019050818103600083015261360d8184613595565b905092915050565b61361e81613372565b82525050565b60006020820190506136396000830184613615565b92915050565b600080600060608486031215613658576136576131f2565b5b600061366686828701613448565b935050602061367786828701613448565b925050604061368886828701613393565b9150509250925092565b600080604083850312156136a9576136a86131f2565b5b60006136b785828601613393565b92505060206136c885828601613393565b9150509250929050565b600080fd5b600080fd5b7f4e487b7100000000000000000000000000000000000000000000000000000000600052604160045260246000fd5b61371482613306565b810181811067ffffffffffffffff82111715613733576137326136dc565b5b80604052505050565b60006137466131e8565b9050613752828261370b565b919050565b600067ffffffffffffffff821115613772576137716136dc565b5b61377b82613306565b9050602081019050919050565b82818337600083830152505050565b60006137aa6137a584613757565b61373c565b9050828152602081018484840111156137c6576137c56136d7565b5b6137d1848285613788565b509392505050565b600082601f8301126137ee576137ed6136d2565b5b81356137fe848260208601613797565b91505092915050565b6000806040838503121561381e5761381d6131f2565b5b600083013567ffffffffffffffff81111561383c5761383b6131f7565b5b613848858286016137d9565b925050602083013567ffffffffffffffff811115613869576138686131f7565b5b613875858286016137d9565b9150509250929050565b600060208284031215613895576138946131f2565b5b60006138a384828501613448565b91505092915050565b600080604083850312156138c3576138c26131f2565b5b600083013567ffffffffffffffff8111156138e1576138e06131f7565b5b6138ed858286016137d9565b92505060206138fe85828601613393565b9150509250929050565b600081519050919050565b600082825260208201905092915050565b6000819050602082019050919050565b600082825260208201905092915050565b6000613950826132b7565b61395a8185613934565b935061396a8185602086016132d3565b61397381613306565b840191505092915050565b613987816133f5565b82525050565b600060808301600083015184820360008601526139aa8282613945565b915050602083015184820360208601526139c48282613945565b91505060408301516139d960408601826134c9565b5060608301516139ec606086018261397e565b508091505092915050565b6000613a03838361398d565b905092915050565b6000602082019050919050565b6000613a2382613908565b613a2d8185613913565b935083602082028501613a3f85613924565b8060005b85811015613a7b5784840389528151613a5c85826139f7565b9450613a6783613a0b565b925060208a01995050600181019050613a43565b50829750879550505050505092915050565b60006020820190508181036000830152613aa78184613a18565b905092915050565b613ab8816134d8565b82525050565b6000602082019050613ad36000830184613aaf565b92915050565b613ae281613281565b8114613aed57600080fd5b50565b600081359050613aff81613ad9565b92915050565b60008060408385031215613b1c57613b1b6131f2565b5b6000613b2a85828601613448565b9250506020613b3b85828601613af0565b9150509250929050565b600067ffffffffffffffff821115613b6057613b5f6136dc565b5b613b6982613306565b9050602081019050919050565b6000613b89613b8484613b45565b61373c565b905082815260208101848484011115613ba557613ba46136d7565b5b613bb0848285613788565b509392505050565b600082601f830112613bcd57613bcc6136d2565b5b8135613bdd848260208601613b76565b91505092915050565b60008060008060808587031215613c0057613bff6131f2565b5b6000613c0e87828801613448565b9450506020613c1f87828801613448565b9350506040613c3087828801613393565b925050606085013567ffffffffffffffff811115613c5157613c506131f7565b5b613c5d87828801613bb8565b91505092959194509250565b60008060408385031215613c8057613c7f6131f2565b5b6000613c8e85828601613448565b9250506020613c9f85828601613448565b9150509250929050565b7f4e487b7100000000000000000000000000000000000000000000000000000000600052602260045260246000fd5b60006002820490506001821680613cf057607f821691505b60208210811415613d0457613d03613ca9565b5b50919050565b7f4552433732313a20617070726f76616c20746f2063757272656e74206f776e6560008201527f7200000000000000000000000000000000000000000000000000000000000000602082015250565b6000613d666021836132c2565b9150613d7182613d0a565b604082019050919050565b60006020820190508181036000830152613d9581613d59565b9050919050565b7f4552433732313a20617070726f76652063616c6c6572206973206e6f7420746f60008201527f6b656e206f776e6572206f7220617070726f76656420666f7220616c6c000000602082015250565b6000613df8603d836132c2565b9150613e0382613d9c565b604082019050919050565b60006020820190508181036000830152613e2781613deb565b9050919050565b7f4e487b7100000000000000000000000000000000000000000000000000000000600052601160045260246000fd5b6000613e6882613372565b9150613e7383613372565b925082821015613e8657613e85613e2e565b5b828203905092915050565b6000613e9c82613372565b9150613ea783613372565b9250827fffffffffffffffffffffffffffffffffffffffffffffffffffffffffffffffff03821115613edc57613edb613e2e565b5b828201905092915050565b7f4e487b7100000000000000000000000000000000000000000000000000000000600052603260045260246000fd5b6000613f2182613372565b91507fffffffffffffffffffffffffffffffffffffffffffffffffffffffffffffffff821415613f5457613f53613e2e565b5b600182019050919050565b7f4552433732313a2063616c6c6572206973206e6f7420746f6b656e206f776e6560008201527f72206f7220617070726f76656400000000000000000000000000000000000000602082015250565b6000613fbb602d836132c2565b9150613fc682613f5f565b604082019050919050565b60006020820190508181036000830152613fea81613fae565b9050919050565b7f5072696365206d757374206265206174206c6561737420312077656900000000600082015250565b6000614027601c836132c2565b915061403282613ff1565b602082019050919050565b600060208201905081810360008301526140568161401a565b9050919050565b7f5072696365206d75737420626520657175616c20746f206c697374696e67207060008201527f7269636500000000000000000000000000000000000000000000000000000000602082015250565b60006140b96024836132c2565b91506140c48261405d565b604082019050919050565b600060208201905081810360008301526140e8816140ac565b9050919050565b60006080820190506141046000830187613407565b6141116020830186613407565b61411e6040830185613615565b61412b606083018461328d565b95945050505050565b7f4552433732313a20696e76616c696420746f6b656e2049440000000000000000600082015250565b600061416a6018836132c2565b915061417582614134565b602082019050919050565b600060208201905081810360008301526141998161415d565b9050919050565b7f506c656173652070617920736f6d657468696e6720677265617465722074686160008201527f6e20300000000000000000000000000000000000000000000000000000000000602082015250565b60006141fc6023836132c2565b9150614207826141a0565b604082019050919050565b6000602082019050818103600083015261422b816141ef565b9050919050565b6000608082019050818103600083015261424c8187613317565b905081810360208301526142608186613317565b905061426f6040830185613615565b61427c6060830184613615565b95945050505050565b7f4552433732313a2061646472657373207a65726f206973206e6f74206120766160008201527f6c6964206f776e65720000000000000000000000000000000000000000000000602082015250565b60006142e16029836132c2565b91506142ec82614285565b604082019050919050565b60006020820190508181036000830152614310816142d4565b9050919050565b7f4f6e6c79206d61726b6574706c616365206f776e65722063616e20757064617460008201527f65206c697374696e672070726963652e00000000000000000000000000000000602082015250565b60006143736030836132c2565b915061437e82614317565b604082019050919050565b600060208201905081810360008301526143a281614366565b9050919050565b7f506c65617365207375626d6974207468652061736b696e67207072696365206960008201527f6e206f7264657220746f20636f6d706c65746520746865207075726368617365602082015250565b60006144056040836132c2565b9150614410826143a9565b604082019050919050565b60006020820190508181036000830152614434816143f8565b9050919050565b60006060820190506144506000830186613407565b61445d6020830185613407565b61446a6040830184613615565b949350505050565b600081905092915050565b6000614488826132b7565b6144928185614472565b93506144a28185602086016132d3565b80840191505092915050565b60006144ba828561447d565b91506144c6828461447d565b91508190509392505050565b7f4f6e6c79206974656d206f776e65722063616e20706572666f726d207468697360008201527f206f7065726174696f6e00000000000000000000000000000000000000000000602082015250565b600061452e602a836132c2565b9150614539826144d2565b604082019050919050565b6000602082019050818103600083015261455d81614521565b9050919050565b7f4552433732313a207472616e736665722066726f6d20696e636f72726563742060008201527f6f776e6572000000000000000000000000000000000000000000000000000000602082015250565b60006145c06025836132c2565b91506145cb82614564565b604082019050919050565b600060208201905081810360008301526145ef816145b3565b9050919050565b7f4552433732313a207472616e7366657220746f20746865207a65726f2061646460008201527f7265737300000000000000000000000000000000000000000000000000000000602082015250565b60006146526024836132c2565b915061465d826145f6565b604082019050919050565b6000602082019050818103600083015261468181614645565b9050919050565b7f4552433732313a206d696e7420746f20746865207a65726f2061646472657373600082015250565b60006146be6020836132c2565b91506146c982614688565b602082019050919050565b600060208201905081810360008301526146ed816146b1565b9050919050565b7f4552433732313a20746f6b656e20616c7265616479206d696e74656400000000600082015250565b600061472a601c836132c2565b9150614735826146f4565b602082019050919050565b600060208201905081810360008301526147598161471d565b9050919050565b7f45524337323155524953746f726167653a2055524920736574206f66206e6f6e60008201527f6578697374656e7420746f6b656e000000000000000000000000000000000000602082015250565b60006147bc602e836132c2565b91506147c782614760565b604082019050919050565b600060208201905081810360008301526147eb816147af565b9050919050565b7f4552433732313a20617070726f766520746f2063616c6c657200000000000000600082015250565b60006148286019836132c2565b9150614833826147f2565b602082019050919050565b600060208201905081810360008301526148578161481b565b9050919050565b7f4552433732313a207472616e7366657220746f206e6f6e20455243373231526560008201527f63656976657220696d706c656d656e7465720000000000000000000000000000602082015250565b60006148ba6032836132c2565b91506148c58261485e565b604082019050919050565b600060208201905081810360008301526148e9816148ad565b9050919050565b7f436f756e7465723a2064656372656d656e74206f766572666c6f770000000000600082015250565b6000614926601b836132c2565b9150614931826148f0565b602082019050919050565b6000602082019050818103600083015261495581614919565b9050919050565b600081519050919050565b600082825260208201905092915050565b60006149838261495c565b61498d8185614967565b935061499d8185602086016132d3565b6149a681613306565b840191505092915050565b60006080820190506149c66000830187613407565b6149d36020830186613407565b6149e06040830185613615565b81810360608301526149f28184614978565b905095945050505050565b600081519050614a0c81613228565b92915050565b600060208284031215614a2857614a276131f2565b5b6000614a36848285016149fd565b91505092915050565b7f4e487b7100000000000000000000000000000000000000000000000000000000600052601260045260246000fdfea2646970667358221220a3b9013846dfd0e8db2f5b5968c6a630dd93b92886f3468f5f52d6082eb5a82964736f6c634300080a0033",
  "linkReferences": {},
  "deployedLinkReferences": {}
}